{
  "contractName": "Voting",
  "abi": [
    {
      "inputs": [],
      "payable": false,
      "stateMutability": "nonpayable",
      "type": "constructor"
    },
    {
      "constant": true,
      "inputs": [],
      "name": "admin",
      "outputs": [
        {
          "internalType": "address",
          "name": "",
          "type": "address"
        }
      ],
      "payable": false,
      "stateMutability": "view",
      "type": "function"
    },
    {
      "constant": true,
      "inputs": [],
      "name": "candidate1",
      "outputs": [
        {
          "internalType": "string",
          "name": "",
          "type": "string"
        }
      ],
      "payable": false,
      "stateMutability": "view",
      "type": "function"
    },
    {
      "constant": true,
      "inputs": [],
      "name": "candidate2",
      "outputs": [
        {
          "internalType": "string",
          "name": "",
          "type": "string"
        }
      ],
      "payable": false,
      "stateMutability": "view",
      "type": "function"
    },
    {
      "constant": true,
      "inputs": [],
      "name": "candidate3",
      "outputs": [
        {
          "internalType": "string",
          "name": "",
          "type": "string"
        }
      ],
      "payable": false,
      "stateMutability": "view",
      "type": "function"
    },
    {
      "constant": true,
      "inputs": [],
      "name": "votes1",
      "outputs": [
        {
          "internalType": "uint256",
          "name": "",
          "type": "uint256"
        }
      ],
      "payable": false,
      "stateMutability": "view",
      "type": "function"
    },
    {
      "constant": true,
      "inputs": [],
      "name": "votes2",
      "outputs": [
        {
          "internalType": "uint256",
          "name": "",
          "type": "uint256"
        }
      ],
      "payable": false,
      "stateMutability": "view",
      "type": "function"
    },
    {
      "constant": true,
      "inputs": [],
      "name": "votes3",
      "outputs": [
        {
          "internalType": "uint256",
          "name": "",
          "type": "uint256"
        }
      ],
      "payable": false,
      "stateMutability": "view",
      "type": "function"
    },
    {
      "constant": true,
      "inputs": [],
      "name": "votingActive",
      "outputs": [
        {
          "internalType": "bool",
          "name": "",
          "type": "bool"
        }
      ],
      "payable": false,
      "stateMutability": "view",
      "type": "function"
    },
    {
      "constant": true,
      "inputs": [],
      "name": "votingEndTime",
      "outputs": [
        {
          "internalType": "uint256",
          "name": "",
          "type": "uint256"
        }
      ],
      "payable": false,
      "stateMutability": "view",
      "type": "function"
    },
    {
      "constant": false,
      "inputs": [
        {
          "internalType": "uint256",
          "name": "durationInMinutes",
          "type": "uint256"
        }
      ],
      "name": "startVoting",
      "outputs": [],
      "payable": false,
      "stateMutability": "nonpayable",
      "type": "function"
    },
    {
      "constant": false,
      "inputs": [],
      "name": "endVoting",
      "outputs": [],
      "payable": false,
      "stateMutability": "nonpayable",
      "type": "function"
    },
    {
      "constant": false,
      "inputs": [
        {
          "internalType": "uint256",
          "name": "candidateNumber",
          "type": "uint256"
        }
      ],
      "name": "voteForCandidate",
      "outputs": [],
      "payable": false,
      "stateMutability": "nonpayable",
      "type": "function"
    },
    {
      "constant": true,
      "inputs": [
        {
          "internalType": "uint256",
          "name": "candidateNumber",
          "type": "uint256"
        }
      ],
      "name": "getVotes",
      "outputs": [
        {
          "internalType": "uint256",
          "name": "",
          "type": "uint256"
        }
      ],
      "payable": false,
      "stateMutability": "view",
      "type": "function"
    },
    {
      "constant": true,
      "inputs": [],
      "name": "getVotingStatus",
      "outputs": [
        {
          "internalType": "bool",
          "name": "active",
          "type": "bool"
        },
        {
          "internalType": "uint256",
          "name": "endTime",
          "type": "uint256"
        },
        {
          "internalType": "uint256",
          "name": "timeRemaining",
          "type": "uint256"
        }
      ],
      "payable": false,
      "stateMutability": "view",
      "type": "function"
    }
  ],
  "bytecode": "0x60806040526040518060400160405280600581526020017f416c6963650000000000000000000000000000000000000000000000000000008152506000908051906020019061004f92919061015b565b506040518060400160405280600381526020017f426f6200000000000000000000000000000000000000000000000000000000008152506001908051906020019061009b92919061015b565b506040518060400160405280600781526020017f436861726c696500000000000000000000000000000000000000000000000000815250600290805190602001906100e792919061015b565b506000600660146101000a81548160ff021916908315150217905550600060075534801561011457600080fd5b5033600660006101000a81548173ffffffffffffffffffffffffffffffffffffffff021916908373ffffffffffffffffffffffffffffffffffffffff160217905550610200565b828054600181600116156101000203166002900490600052602060002090601f016020900481019282601f1061019c57805160ff19168380011785556101ca565b828001600101855582156101ca579182015b828111156101c95782518255916020019190600101906101ae565b5b5090506101d791906101db565b5090565b6101fd91905b808211156101f95760008160009055506001016101e1565b5090565b90565b610b7b8061020f6000396000f3fe608060405234801561001057600080fd5b50600436106100ea5760003560e01c8063408e27271161008c578063b8397d0811610066578063b8397d081461031b578063c3403ddf1461039e578063f851a440146103a8578063ff981099146103f2576100ea565b8063408e272714610246578063581c281c146102685780635b57014c14610298576100ea565b80632c7a2e5b116100c85780632c7a2e5b146101ae578063332336df146101cc57806336c8c5ee146101ea5780633d2f5bda14610218576100ea565b806301243fce146100ef5780631327e258146101725780631ea736e014610190575b600080fd5b6100f7610434565b6040518080602001828103825283818151815260200191508051906020019080838360005b8381101561013757808201518184015260208101905061011c565b50505050905090810190601f1680156101645780820380516001836020036101000a031916815260200191505b509250505060405180910390f35b61017a6104d2565b6040518082815260200191505060405180910390f35b6101986104d8565b6040518082815260200191505060405180910390f35b6101b66104de565b6040518082815260200191505060405180910390f35b6101d46104e4565b6040518082815260200191505060405180910390f35b6102166004803603602081101561020057600080fd5b81019080803590602001909291905050506104ea565b005b6102446004803603602081101561022e57600080fd5b8101908080359060200190929190505050610644565b005b61024e6107b4565b604051808215151515815260200191505060405180910390f35b6102706107c7565b6040518084151515158152602001838152602001828152602001935050505060405180910390f35b6102a061081e565b6040518080602001828103825283818151815260200191508051906020019080838360005b838110156102e05780820151818401526020810190506102c5565b50505050905090810190601f16801561030d5780820380516001836020036101000a031916815260200191505b509250505060405180910390f35b6103236108bc565b6040518080602001828103825283818151815260200191508051906020019080838360005b83811015610363578082015181840152602081019050610348565b50505050905090810190601f1680156103905780820380516001836020036101000a031916815260200191505b509250505060405180910390f35b6103a661095a565b005b6103b0610a41565b604051808273ffffffffffffffffffffffffffffffffffffffff1673ffffffffffffffffffffffffffffffffffffffff16815260200191505060405180910390f35b61041e6004803603602081101561040857600080fd5b8101908080359060200190929190505050610a67565b6040518082815260200191505060405180910390f35b60008054600181600116156101000203166002900480601f0160208091040260200160405190810160405280929190818152602001828054600181600116156101000203166002900480156104ca5780601f1061049f576101008083540402835291602001916104ca565b820191906000526020600020905b8154815290600101906020018083116104ad57829003601f168201915b505050505081565b60035481565b60075481565b60045481565b60055481565b600660149054906101000a900460ff1661056c576040517f08c379a00000000000000000000000000000000000000000000000000000000081526004018080602001828103825260148152602001807f566f74696e67206973206e6f742061637469766500000000000000000000000081525060200191505060405180910390fd5b60075442106105e3576040517f08c379a00000000000000000000000000000000000000000000000000000000081526004018080602001828103825260178152602001807f566f74696e6720706572696f642068617320656e64656400000000000000000081525060200191505060405180910390fd5b600181141561060357600360008154809291906001019190505550610641565b600281141561062357600460008154809291906001019190505550610640565b600381141561063f576005600081548092919060010191905055505b5b5b50565b600660009054906101000a900473ffffffffffffffffffffffffffffffffffffffff1673ffffffffffffffffffffffffffffffffffffffff163373ffffffffffffffffffffffffffffffffffffffff1614610707576040517f08c379a00000000000000000000000000000000000000000000000000000000081526004018080602001828103825260188152602001807f4f6e6c792061646d696e2063616e2063616c6c2074686973000000000000000081525060200191505060405180910390fd5b600660149054906101000a900460ff161561078a576040517f08c379a00000000000000000000000000000000000000000000000000000000081526004018080602001828103825260188152602001807f566f74696e6720697320616c726561647920616374697665000000000000000081525060200191505060405180910390fd5b6001600660146101000a81548160ff021916908315150217905550603c8102420160078190555050565b600660149054906101000a900460ff1681565b6000806000600660149054906101000a900460ff1680156107e9575060075442105b156107fa57426007540390506107ff565b600090505b600660149054906101000a900460ff1660075482925092509250909192565b60018054600181600116156101000203166002900480601f0160208091040260200160405190810160405280929190818152602001828054600181600116156101000203166002900480156108b45780601f10610889576101008083540402835291602001916108b4565b820191906000526020600020905b81548152906001019060200180831161089757829003601f168201915b505050505081565b60028054600181600116156101000203166002900480601f0160208091040260200160405190810160405280929190818152602001828054600181600116156101000203166002900480156109525780601f1061092757610100808354040283529160200191610952565b820191906000526020600020905b81548152906001019060200180831161093557829003601f168201915b505050505081565b600660009054906101000a900473ffffffffffffffffffffffffffffffffffffffff1673ffffffffffffffffffffffffffffffffffffffff163373ffffffffffffffffffffffffffffffffffffffff1614610a1d576040517f08c379a00000000000000000000000000000000000000000000000000000000081526004018080602001828103825260188152602001807f4f6e6c792061646d696e2063616e2063616c6c2074686973000000000000000081525060200191505060405180910390fd5b6000600660146101000a81548160ff02191690831515021790555042600781905550565b600660009054906101000a900473ffffffffffffffffffffffffffffffffffffffff1681565b6000600660149054906101000a900460ff161580610a8757506007544210155b610adc576040517f08c379a0000000000000000000000000000000000000000000000000000000008152600401808060200182810382526027815260200180610b206027913960400191505060405180910390fd5b6001821415610aef576003549050610b1a565b6002821415610b02576004549050610b1a565b6003821415610b15576005549050610b1a565b600090505b91905056fe566f74696e67206973207374696c6c206163746976652e20526573756c74732068696464656e2ea265627a7a72315820b3142c09e83156d388b166c8a787c5e41c5945ea8d8df65ea3e0b1dae8065f9a64736f6c63430005100032",
  "source": "// SPDX-License-Identifier: MIT\r\npragma solidity ^0.5.16;\r\n\r\ncontract Voting {\r\n    string public candidate1 = \"Alice\";\r\n    string public candidate2 = \"Bob\";\r\n    string public candidate3 = \"Charlie\";\r\n    \r\n    uint256 public votes1;\r\n    uint256 public votes2;\r\n    uint256 public votes3;\r\n\r\n     address public admin;  // The person who can start/end voting\r\n    bool public votingActive = false;  // Voting is inactive by default\r\n    uint256 public votingEndTime = 0;  // When voting ends\r\n    \r\n    modifier onlyAdmin() {\r\n        require(msg.sender == admin, \"Only admin can call this\");\r\n        _;\r\n    }\r\n\r\n    modifier onlyWhenActive() {\r\n        require(votingActive, \"Voting is not active\");\r\n        require(block.timestamp < votingEndTime, \"Voting period has ended\");\r\n        _;\r\n    }\r\n\r\n    modifier onlyAfterVoting() {\r\n        require(!votingActive || block.timestamp >= votingEndTime, \r\n                \"Voting is still active. Results hidden.\");\r\n        _;\r\n    }\r\n\r\n    constructor() public {\r\n        admin = msg.sender;\r\n    }\r\n    \r\n    // FUNCTION: Start voting with duration\r\n    function startVoting(uint256 durationInMinutes) public onlyAdmin {\r\n        require(!votingActive, \"Voting is already active\");\r\n        votingActive = true;\r\n        votingEndTime = block.timestamp + (durationInMinutes * 1 minutes);\r\n    }\r\n    \r\n     function endVoting() public onlyAdmin {\r\n        votingActive = false;\r\n        votingEndTime = block.timestamp;\r\n    }\r\n\r\n\r\n    function voteForCandidate(uint candidateNumber) public onlyWhenActive {\r\n        if (candidateNumber == 1) {\r\n            votes1++;\r\n        } else if (candidateNumber == 2) {\r\n            votes2++;\r\n        } else if (candidateNumber == 3) {\r\n            votes3++;\r\n        }\r\n    }\r\n    \r\n    \r\n    function getVotes(uint candidateNumber) public view onlyAfterVoting returns (uint256) {\r\n        if (candidateNumber == 1) return votes1;\r\n        if (candidateNumber == 2) return votes2;\r\n        if (candidateNumber == 3) return votes3;\r\n        return 0;\r\n    }\r\n    \r\n    // NEW FUNCTION: Check voting status\r\n    function getVotingStatus() public view returns (\r\n        bool active, \r\n        uint256 endTime, \r\n        uint256 timeRemaining\r\n    ) {\r\n        if (votingActive && block.timestamp < votingEndTime) {\r\n            timeRemaining = votingEndTime - block.timestamp;\r\n        } else {\r\n            timeRemaining = 0;\r\n        }\r\n        return (votingActive, votingEndTime, timeRemaining);\r\n    }\r\n}",
  "sourcePath": "C:\\Users\\dhivy\\voting-dapp\\contracts\\Voting.sol",
  "compiler": {
    "name": "solc",
    "version": "0.5.16+commit.9c3226ce.Emscripten.clang"
  },
  "schemaVersion": "3.4.16",
  "updatedAt": "2025-12-14T08:13:49.209Z",
  "networkType": "ethereum",
  "devdoc": {
    "methods": {}
  },
  "userdoc": {
    "methods": {}
  }
}